{"abi":[{"type":"constructor","inputs":[{"name":"_signer","type":"address","internalType":"address"}],"stateMutability":"payable"},{"type":"function","name":"nonces","inputs":[{"name":"","type":"address","internalType":"address"}],"outputs":[{"name":"","type":"uint256","internalType":"uint256"}],"stateMutability":"view"},{"type":"function","name":"setValue","inputs":[{"name":"_nonce","type":"uint256","internalType":"uint256"},{"name":"_value","type":"uint256","internalType":"uint256"},{"name":"_signature","type":"tuple","internalType":"struct AuthContract.Signature","components":[{"name":"v","type":"uint8","internalType":"uint8"},{"name":"r","type":"bytes32","internalType":"bytes32"},{"name":"s","type":"bytes32","internalType":"bytes32"}]}],"outputs":[],"stateMutability":"nonpayable"},{"type":"function","name":"signer","inputs":[],"outputs":[{"name":"","type":"address","internalType":"address"}],"stateMutability":"view"},{"type":"function","name":"values","inputs":[{"name":"","type":"address","internalType":"address"}],"outputs":[{"name":"","type":"uint256","internalType":"uint256"}],"stateMutability":"view"}],"bytecode":{"object":"0x60806040526040516104a23803806104a28339810160408190526020916044565b600080546001600160a01b0319166001600160a01b03929092169190911790556072565b600060208284031215605557600080fd5b81516001600160a01b0381168114606b57600080fd5b9392505050565b610421806100816000396000f3fe608060405234801561001057600080fd5b506004361061004c5760003560e01c806307bed2d614610051578063238ac9331461006657806354fe9fd7146100965780637ecebe00146100c4575b600080fd5b61006461005f3660046102f9565b6100e4565b005b600054610079906001600160a01b031681565b6040516001600160a01b0390911681526020015b60405180910390f35b6100b66100a4366004610394565b60026020526000908152604090205481565b60405190815260200161008d565b6100b66100d2366004610394565b60016020526000908152604090205481565b33600090815260016020819052604090912054610100916103c4565b83146101435760405162461bcd60e51b815260206004820152600d60248201526c496e76616c6964206e6f6e636560981b60448201526064015b60405180910390fd5b3360009081526002602052604090205482116101915760405162461bcd60e51b815260206004820152600d60248201526c496e76616c69642076616c756560981b604482015260640161013a565b604080516020810184905290810184905260009060600160408051601f198184030181529082905280516020918201207f19457468657265756d205369676e6564204d6573736167653a0a33320000000091830191909152603c820152605c01604051602081830303815290604052805190602001209050600060018284600001518560200151866040015160405160008152602001604052604051610253949392919093845260ff9290921660208401526040830152606082015260800190565b6020604051602081039080840390855afa158015610275573d6000803e3d6000fd5b5050604051601f1901516000549092506001600160a01b0380841691161490506102d55760405162461bcd60e51b8152602060048201526011602482015270496e76616c6964207369676e617475726560781b604482015260640161013a565b50503360009081526001602090815260408083209590955560029052929092205550565b600080600083850360a081121561030f57600080fd5b84359350602085013592506060603f198201121561032c57600080fd5b506040516060810181811067ffffffffffffffff8211171561035e57634e487b7160e01b600052604160045260246000fd5b604090815285013560ff8116811461037557600080fd5b8152606085013560208201526080909401356040850152509093909250565b6000602082840312156103a657600080fd5b81356001600160a01b03811681146103bd57600080fd5b9392505050565b808201808211156103e557634e487b7160e01b600052601160045260246000fd5b9291505056fea26469706673582212201f118405e5f68e8e936d295891ff7514abbb3e0b6dfc97bf0e0578a082a943f664736f6c63430008190033","linkReferences":{}},"methodIdentifiers":{"nonces(address)":"7ecebe00","setValue(uint256,uint256,(uint8,bytes32,bytes32))":"07bed2d6","signer()":"238ac933","values(address)":"54fe9fd7"},"id":0}